:100000000C94E9000C9411010C9411010C94110151
:100010000C9411010C9411010C9411010C94110118
:100020000C9411010C9411010C9494040C94060589
:100030000C9411010C9411010C9411010C941101F8
:100040000C9411010C9411010C9411010C941101E8
:100050000C9411010C9411010C9411010C9444079F
:100060000C9411010C9411010C9411010C941101C8
:100070000C9411010C9411010C9411010C941101B8
:100080000C9411010C9411010C9411010C941101A8
:100090000C9411010C9411010C9411010C94110198
:1000A0000C9411010C9411010C94110130033303D1
:1000B000220326032A0354035403540337033B0348
:1000C0003F034503490354034F030000000023008E
:1000D000260029002C002F000000000200090F005C
:1000E00000030401000C00000000000000000000FC
:1000F00000000000000000080B00020202010009DD
:100100000400000102020000052400100105240182
:1001100001010424020605240600010705810310DD
:10012000004009040100020A000000070502024025
:1001300000000705830240000004030904120100C7
:1001400002EF020140FB1F002300010102030150E6
:100150006F6C6F6C7520436F72706F726174696F32
:100160006E00506F6C6F6C7520412D53746172205E
:10017000333255340000000000250028002B002EEB
:1001800000310000000000240027002A002D00306C
:10019000000404040404030405020202020403022E
:1001A000020202060606060606040402020204040F
:1001B0000408020110408040102040804080080266
:1001C00004018040201002011080102040402000D7
:1001D0008E0711241FBECFEFDAE0DEBFCDBF11E0E6
:1001E000A0E0B1E0E4E4F1E102C005900D92A63296
:1001F000B107D9F721E0A6E2B1E001C01D92A6390E
:10020000B207E1F710E0C9EED0E004C02197FE018B
:100210000E949508C83ED107C9F70E94A3070C9415
:10022000A0080C940000CF93DF9390E0FC01E05510
:10023000FE4F2491FC01EF56FE4F84918823C1F0BC
:1002400090E0880F991FFC01ED57FE4FC591D491A6
:10025000FC01EB58FE4FA591B4919FB7F8948881AB
:10026000E22FE0958E2388838C91E823EC939FBF47
:10027000DF91CF91089520919501211103C08FEF57
:100280009FEF08955FB7F89422E02093E900209152
:10029000F20030E01216130614F421E030E0422F91
:1002A000FC0184E6415038F02898809394019091A5
:1002B000F1009193F7CF2115310521F08091F200E3
:1002C000882319F05FBFC90108958BE68093E80089
:1002D000F9CF2FB7F89483E08093E9009091E8007C
:1002E000892F807295FF04C09091F20080E4891BF1
:1002F0002FBF0895CF92DF92EF92FF920F931F933B
:10030000CF93DF936C017A018B01C0E0D0E0CE1572
:10031000DF0581F0D8016D918D01D601ED91FC9141
:100320000190F081E02DC6010995892B11F02196ED
:10033000EECF7E01C701DF91CF911F910F91FF900A
:10034000EF90DF90CF90089580918C0181110DC0C6
:1003500082E08093880184E08093890110928B0170
:1003600010928A0181E080938C0188E891E00895E1
:10037000CF93DF931F92CDB7DEB76983DC01ED9198
:10038000FC910280F381E02D41E050E0BE016F5FFF
:100390007F4F09950F90DF91CF91089583E080936F
:1003A000E9008091F200882319F08AE38093E80045
:1003B00008950E94690190E00895CF93DF931F9202
:1003C000CDB7DEB7FC018485958597FD05C02FEF7D
:1003D0003FEF358724870BC0CE0101960E943B0179
:1003E000019719F4898190E002C08FEF9FEF0F9081
:1003F000DF91CF9108950F931F93CF93DF931F92B7
:10040000CDB7DEB78C01FC018485958597FF0EC0C2
:10041000CE0101960E943B01019719F4898190E079
:1004200002C08FEF9FEFF80195878487F8018485DC
:1004300095850F90DF91CF911F910F910895FC0149
:100440008485958597FD0BC09FB7F89482E08093D3
:10045000E9008091F2009FBF90E0019608959FB758
:10046000F89482E08093E9008091F2009FBF90E0D1
:100470000895089580E090E00895409132015091F0
:100480003301209130013091310142175307B4F408
:100490009091E8009570E1F39091E80092FD19C009
:1004A0008093F100809132019091330101968F7316
:1004B0009927892B19F48EEF8093E80080913201FF
:1004C000909133010196909333018093320181E042
:1004D000089580E00895DF92EF92FF920F931F93AB
:1004E000CF93DF93D82EF92EE42E062F10E0C8010B
:1004F0000196880F0E943D0283E00E943D02CD2DAF
:10050000DF2D0C0F1D1FC017D10789F0E7FE03C0B8
:10051000FE01849101C088810E943D02F82E80E096
:100520000E943D028F2121968111EDCF01C081E013
:10053000DF91CF911F910F91FF90EF90DF90089581
:10054000DF92EF92FF920F931F93CF93DF93D82EFA
:100550008A017B01E40EF51EEB01CE15DF0571F07B
:10056000D7FE03C0FE01849101C088810E943D0234
:1005700021968111F2CF8FEF9FEF01C0C801DF916B
:10058000CF911F910F91FF90EF90DF9008950F93FF
:100590001F93CF93DF931F92CDB7DEB782E089839D
:1005A00042E450E067EF70E080E80E94A0020E9401
:1005B000A401DC0112960D911C91139701151105F0
:1005C00089F0D801ED91FC910280F381E02DBE010C
:1005D0006F5F7F4FC801099597FD04C0F801008542
:1005E0001185ECCF89810F90DF91CF911F910F91F1
:1005F0000895615030F02091F100FC0120830196B4
:10060000F8CF289884E680939401089590E0FC0147
:10061000E852FF4F4491FC01E055FE4F2491FC014C
:10062000EF56FE4F8491882309F44DC04423E1F135
:1006300050E0FA013197EF30F105B0F5EA5AFF4F7B
:100640000C949508909180009F7707C0909180004E
:100650009F7D03C090918000977F9093800024C07D
:1006600094B59F7702C094B59F7D94BD1DC09091B5
:1006700090009F7707C0909190009F7D03C090915C
:100680009000977F909390000FC09091C0009F774B
:1006900003C09091C0009F7D9093C00005C09091D1
:1006A000C200977F9093C200E82FF0E0EE0FFF1F8B
:1006B000E653FF4FA591B491EC91E22381E090E0E5
:1006C00021F480E0089580E090E008953FB7F89429
:1006D00080912C0190912D01A0912E01B0912F01BC
:1006E00026B5A89B05C02F3F19F00196A11DB11D8D
:1006F0003FBFBA2FA92F982F8827820F911DA11DC8
:10070000B11DBC01CD0142E0660F771F881F991F04
:100710004A95D1F70895CF92DF92EF92FF920E940F
:1007200066036B017C010E946603DC01CB018C191E
:100730009D09AE09BF09883E9340A105B10598F314
:10074000FF90EF90DF90CF9008958F929F92AF929D
:10075000BF92CF92DF92EF92FF920F931F93CF93AE
:10076000DF936C017B018A0180910B01882309F4DE
:1007700058C080919501882309F453C080913701B6
:1007800080FF05C08091E00082608093E000E80176
:10079000B12C8AEFA82E93E0892E2AE3922E20977F
:1007A00011F4BB20B9F10E946901811106C0AA941D
:1007B000AA20B9F10E948B03F2CF282F30E0C21794
:1007C000D3070CF48C2F9FB7F8948092E900209106
:1007D000E80025FF1DC0282F30E0C21BD30BF70116
:1007E000815020F041914093F100FACFE20EF31EC8
:1007F000BB2019F09092E8000AC08091E80085FDC6
:1008000007C09092E800BB24B394209709F0B12C64
:100810009FBFC5CF5D9884E6809336011016110600
:1008200044F081E090E0F6019383828380E090E0E1
:1008300001C0C801DF91CF911F910F91FF90EF9000
:10084000DF90CF90BF90AF909F908F9008952E989B
:10085000269A2D98259A2A98229A2998219A80EAF0
:100860008093800081E18093810080E991E0909302
:100870008700809386001092890010928800109261
:100880008B0010928A000895CF93DF93EC01809142
:100890002601811105C081E0809326010E94270472
:1008A000D7FF05C0D195C195D10981E001C080E095
:1008B000C13991E0D90714F0C0E9D1E0D0938900A3
:1008C000C0938800882311F0299A01C02998219AA1
:1008D000DF91CF910895CF93DF93EC0180912601B2
:1008E000811105C081E0809326010E942704D7FF73
:1008F00005C0D195C195D10981E001C080E0C13921
:1009000091E0D90714F0C0E9D1E0D0938B00C093F7
:100910008A00882311F02A9A01C02A98229ADF912E
:10092000CF9108950E949B081F920F920FB60F92CD
:1009300011248F939F938091E1009091E100937F28
:100940009093E10083FF0FC01092E90091E0909333
:10095000EB001092EC0092E39093ED001092950161
:1009600098E09093F00082FF20C093E09093E9001C
:100970009091F200992319F09AE39093E8009091F6
:100980003601992339F090913601915090933601B8
:10099000992389F190919401992339F090919401D0
:1009A000915090939401992341F184FF10C080915C
:1009B000E2008E7E81608093E2008091E1008F7E74
:1009C0008093E100809137018E7E806111C080FFAD
:1009D00016C08091E2008E7E80618093E20080915B
:1009E000E1008E7E8093E100809137018E7E8160F0
:1009F0008093370104C05D9ACDCF289AD6CF9F91BE
:100A00008F910F900FBE0F901F9018951F920F920D
:100A10000FB60F921124CF92DF92EF92FF920F93B5
:100A20001F932F933F934F935F936F937F938F9376
:100A30009F93AF93BF93EF93FF93CF93DF93CDB784
:100A4000DEB76C97DEBFCDBF1092E9008091E80061
:100A500083FFFBC168E0CE0145960E94F90282EF58
:100A60008093E8008D8987FF05C09091E80090FF92
:100A7000FCCF03C09EEF9093E800982F907609F08A
:100A8000C6C09E894F89588D2F89F88C91110CC052
:100A9000803829F4809135018093F10002C01092D2
:100AA000F1001092F10045C1913051F4811141C122
:100AB0004130510509F03DC1809135018D7F0BC05A
:100AC000933061F4811135C14130510509F031C1D4
:100AD000809135018260809335012BC1953049F4B6
:100AE0008091E80080FFFCCF822F80688093E30034
:100AF00020C1963009F05EC00B8D1C8D22E0109253
:100B0000E9001092330110923201F21232C01092B9
:100B10003101109230010E94C70299E0BE016F5F5F
:100B20007F4FDB01E92F1D92EA95E9F79983FA825D
:100B300091E09E8390EA98879AEF998720913201FD
:100B400030913301275F3F4F3C832B838D8310927D
:100B5000E900109233011092320110933101009399
:100B6000300149E050E080E00E94A0020E94C702EC
:100B7000E0C010933101009330010E94A401DC0118
:100B800012960D911C9113970115110509F4BBC024
:100B9000D801ED91FC910480F581E02DBE016B5EE2
:100BA0007F4FC8010995009709F0C7C0F80100857B
:100BB0001185EACF973009F445C1983021F481E0DE
:100BC0008093F100B6C0993009F0B3C0837009F08A
:100BD00039C1EDE0F1E081E031E096E320812111BF
:100BE00009C08EE78093EA001092EA008F89809313
:100BF00095019FC08093E9003093EB0021912093F1
:100C0000EC009093ED008F5F873041F7EACF8B8D3A
:100C10009C8D1092E9001092330110923201909352
:100C2000310180933001898D811153C08E899D8956
:100C3000913A49F4813209F005C147E050E064E09F
:100C400071E080E0BBC0913209F0FCC0833269F4EE
:100C50008F89988DA0E0B0E080930001909301010E
:100C6000A0930201B093030164C0803269F48091C3
:100C7000E80082FFFCCF67E084E091E00E94F90287
:100C80008BEF8093E80055C0823209F052C08F8903
:100C900080930B01EEEFFFE7859194918B3F9C4D84
:100CA00019F0E0E0F8E002C0EEEFFAE08091040114
:100CB00090910501A0910601B0910701803B9440FD
:100CC000A105B10509F09EC080910B0180FF79C09C
:100CD00099C00E94A401FC01028113810115110534
:100CE00009F4B0C0D801ED91FC910190F081E02DA4
:100CF000BE016B5E7F4FC801099581111AC0F801D2
:100D000000851185EBCFF1E0FF1609F44EC0F3E04A
:100D1000FF1298C08F89882309F44AC0823089F471
:100D200040E862E182E691E00E946B02882309F4C8
:100D300089C08EEF8093E80088C018161906CCF39E
:100D400081C0813029F440E862E18FE491E0ECCF8A
:100D5000833009F077C00E94A401DC011296ED9067
:100D6000FC9013978E010F5F1F4F6801E114F1048F
:100D700079F0D701ED91FC910680F781E02DB80163
:100D8000C7010995080F111DF701E084F184EECF2A
:100D9000D8011C92F60101900020E9F73197BF01BC
:100DA0006C197D0940E0C601BFCF6DE371E002C060
:100DB00069E371E0FB01449150E080E80E94A002E9
:100DC000B8CFEE3F2AE0F20751F08081918187375A
:100DD000A7E79A0721F09093FF0A8093FE0A87E71E
:100DE00097E79183808380916000809334019BE03A
:100DF00088E10FB6F894A895809360000FBE909399
:100E0000600097CF808191818737974709F091CF14
:100E1000A895809160008861809360008091340182
:100E200080936000EE3FBAE0FB0739F08091FE0A44
:100E30009091FF0A918380837CCF1092FF0A1092D9
:100E4000FE0A77CF81E28093EB006C960FB6F894A0
:100E5000DEBF0FBECDBFDF91CF91FF91EF91BF916C
:100E6000AF919F918F917F916F915F914F913F9142
:100E70002F911F910F91FF90EF90DF90CF900F90E7
:100E80000FBE0F901F9018951F920F920FB60F92E2
:100E900011242F933F938F939F93AF93BF93809190
:100EA000280190912901A0912A01B0912B01309144
:100EB000270123E0230F2D3720F40196A11DB11D3A
:100EC00005C026E8230F0296A11DB11D209327011E
:100ED0008093280190932901A0932A01B0932B01BC
:100EE00080912C0190912D01A0912E01B0912F01A4
:100EF0000196A11DB11D80932C0190932D01A0930B
:100F00002E01B0932F01BF91AF919F918F913F918F
:100F10002F910F900FBE0F901F901895E8E3F1E00E
:100F20001382128288EE93E0A0E0B0E08483958380
:100F3000A683B78387E191E0918380838FEF9FEF52
:100F4000958784870895789484B5826084BD84B53C
:100F5000816084BD85B5826085BD85B5816085BDB4
:100F600080916E00816080936E001092810080916C
:100F700081008260809381008091810081608093F4
:100F80008100809180008160809380008091910039
:100F900082608093910080919100816080939100A4
:100FA000809190008160809390008091C100846066
:100FB0008093C1008091C10082608093C1008091C4
:100FC000C10081608093C1008091C30081608093E3
:100FD000C3008091C00082608093C0008091C200F5
:100FE00081608093C20080917A00846080937A004F
:100FF00080917A00826080937A0080917A0081608B
:1010000080937A0080917A00806880937A001092B1
:10101000950110923501109237018091D7008160BF
:101020008093D70080EA8093D80089B5806189BD1C
:1010300089B5826089BD09B400FEFDCF0E948B0393
:101040008091D8008F7C80618093D8008091E000EF
:10105000807F8093E0008091E1008E7E8093E100AC
:101060008DE08093E200559A209A0E9413018EE051
:101070000E94130181E10E94130181E00E9413018B
:1010800080E00E94130100E010E080E00E9406036F
:10109000892BE1F58DE00E940603D82F8EE00E9497
:1010A00006037C0181E10E940603EE0CFF1C880F01
:1010B000991F880F991F8E29C82FCD2B81E00E9480
:1010C000060343E0880F991F4A95E1F78C2B853082
:1010D000E9F03CF4823061F0843001F584ED9EEF5C
:1010E00009C0863061F08830C9F484ED9EEF09C0F4
:1010F0008CE291E00E946B048CE291E00DC08CE2E6
:1011000091E00E946B0484ED9EEF06C080E090E0C9
:101110000E946B0480E090E00E94440401151105D8
:1011200009F4B3CF0E940000B0CFEE0FFF1F05906F
:10113000F491E02D099481E090E0F8940C94A008DB
:04114000F894FFCF51
:10114400FFFFFFFF00E100000000000000C18081FC
:1011540000000000000000B801A503D901CE011F62
:0611640002DD01FB0100A9
:00000001FF
